{
  "contractName": "ApprovalContract",
  "abi": [
    {
      "constant": true,
      "inputs": [],
      "name": "approver",
      "outputs": [
        {
          "name": "",
          "type": "address"
        }
      ],
      "payable": false,
      "stateMutability": "view",
      "type": "function",
      "signature": "0x141a8dd8"
    },
    {
      "constant": true,
      "inputs": [],
      "name": "sender",
      "outputs": [
        {
          "name": "",
          "type": "address"
        }
      ],
      "payable": false,
      "stateMutability": "view",
      "type": "function",
      "signature": "0x67e404ce"
    },
    {
      "constant": true,
      "inputs": [],
      "name": "receiver",
      "outputs": [
        {
          "name": "",
          "type": "address"
        }
      ],
      "payable": false,
      "stateMutability": "view",
      "type": "function",
      "signature": "0xf7260d3e"
    },
    {
      "constant": false,
      "inputs": [
        {
          "name": "_receiver",
          "type": "address"
        }
      ],
      "name": "deposit",
      "outputs": [],
      "payable": true,
      "stateMutability": "payable",
      "type": "function",
      "signature": "0xf340fa01"
    },
    {
      "constant": true,
      "inputs": [],
      "name": "viewApprover",
      "outputs": [
        {
          "name": "",
          "type": "address"
        }
      ],
      "payable": false,
      "stateMutability": "pure",
      "type": "function",
      "signature": "0xd93ce89c"
    },
    {
      "constant": false,
      "inputs": [],
      "name": "approve",
      "outputs": [],
      "payable": false,
      "stateMutability": "nonpayable",
      "type": "function",
      "signature": "0x12424e3f"
    }
  ],
  "bytecode": "0x608060405234801561001057600080fd5b50610442806100206000396000f3fe608060405260043610610078576000357c0100000000000000000000000000000000000000000000000000000000900463ffffffff16806312424e3f1461007d578063141a8dd81461009457806367e404ce146100eb578063d93ce89c14610142578063f340fa0114610199578063f7260d3e146101dd575b600080fd5b34801561008957600080fd5b50610092610234565b005b3480156100a057600080fd5b506100a9610304565b604051808273ffffffffffffffffffffffffffffffffffffffff1673ffffffffffffffffffffffffffffffffffffffff16815260200191505060405180910390f35b3480156100f757600080fd5b5061010061031c565b604051808273ffffffffffffffffffffffffffffffffffffffff1673ffffffffffffffffffffffffffffffffffffffff16815260200191505060405180910390f35b34801561014e57600080fd5b50610157610341565b604051808273ffffffffffffffffffffffffffffffffffffffff1673ffffffffffffffffffffffffffffffffffffffff16815260200191505060405180910390f35b6101db600480360360208110156101af57600080fd5b81019080803573ffffffffffffffffffffffffffffffffffffffff16906020019092919050505061035d565b005b3480156101e957600080fd5b506101f26103f0565b604051808273ffffffffffffffffffffffffffffffffffffffff1673ffffffffffffffffffffffffffffffffffffffff16815260200191505060405180910390f35b73928a6054db97621b7e63a50fae07e9fa43a728fb73ffffffffffffffffffffffffffffffffffffffff163373ffffffffffffffffffffffffffffffffffffffff1614151561028257600080fd5b600160009054906101000a900473ffffffffffffffffffffffffffffffffffffffff1673ffffffffffffffffffffffffffffffffffffffff166108fc3073ffffffffffffffffffffffffffffffffffffffff16319081150290604051600060405180830381858888f19350505050158015610301573d6000803e3d6000fd5b50565b73928a6054db97621b7e63a50fae07e9fa43a728fb81565b6000809054906101000a900473ffffffffffffffffffffffffffffffffffffffff1681565b600073928a6054db97621b7e63a50fae07e9fa43a728fb905090565b60003411151561036c57600080fd5b336000806101000a81548173ffffffffffffffffffffffffffffffffffffffff021916908373ffffffffffffffffffffffffffffffffffffffff16021790555080600160006101000a81548173ffffffffffffffffffffffffffffffffffffffff021916908373ffffffffffffffffffffffffffffffffffffffff16021790555050565b600160009054906101000a900473ffffffffffffffffffffffffffffffffffffffff168156fea165627a7a72305820ac76d098f50673e2ad95cded4cb30456ffeffa511c9d67bae35a389ef9d1a50f0029",
  "source": "pragma solidity ^0.5.0;\r\n\r\ncontract ApprovalContract {\r\n\r\n  address public sender;\r\n  address payable public receiver;\r\n  address constant public approver = 0x928a6054DB97621b7e63a50fAe07e9FA43A728fb;\r\n\r\n\r\n\r\n  function deposit(address payable _receiver) external payable {\r\n    require(msg.value > 0);\r\n    sender = msg.sender;\r\n    receiver = _receiver;\r\n  }\r\n\r\n  function viewApprover() external pure returns(address) {\r\n    return(approver);\r\n  }\r\n\r\n  function approve() external {\r\n    require(msg.sender == approver);\r\n    receiver.transfer(address(this).balance);\r\n  }\r\n\r\n}\r\n",
  "sourcePath": "C:/Users/kavuri/Documents/GitHub/Ethereum-Decentralized-Application/contracts/ApprovalContract.sol",
  "compiler": {
    "name": "solc",
    "version": "0.5.0+commit.1d4f565a.Emscripten.clang"
  },
  "schemaVersion": "3.0.1",
  "updatedAt": "2019-02-05T09:58:19.530Z",
  "devdoc": {
    "methods": {}
  },
  "userdoc": {
    "methods": {}
  }
}